:100000000C9474410C94A5410C94A5410C94A54109
:100010000C94A5410C94A5410C94A5410C94A541C8
:100020000C94A5410C94A5410C94A5410C94B0E00E
:100030000C94A5410D9445B60C94A5410C94A54192
:100040000C94A5410D94E23E0C94A5410C94A5415D
:100050000C94A5410C94A5410D94E15B0D9443B023
:100060000C94A5410C94FC510C94A5410C94A54111
:100070000C94A5410C94A5410C94A5410C94A54168
:100080000C94A5410C94A5410C94A5410C94A54158
:100090000C9440520C94A5410C94A5410C94A5419C
:1000A0000C94A5410C94A5410C94A5410C94A54138
:1000B0000C94A5410C94A5410C94A5410C94A54128
:1000C0000C94A5410C94A5410C94A5410C94F449C1
:1000D0000C94A5410C94A5410C94A5410C94A54108
:1000E0000C94A541B3E4B7E4BDE4C8E4E0E4FDE466
:1000F0002CE55EE560012A022802D601FA013602EB
:100100006E02D0017202660154021A02D8019001F7
:100110003401A001E201C20194018401D2011E0256
:10012000860160028C01AA017A02A6013E017801D3
:100130009801BA016401400240024002D401D40196
:10014000D401E601C601D401DA01F60122026802F7
:100150008001AE0148014C0262014001BE01AC01C8
:10016000E001F001EC0148012E020E021C024601E2
:100170000A02440276026402F2017C014802BC01D8
:1001800050029E01C0014401B601F201E8014202A1
:100190005A02084AD73B3BCE016E84BCBFFDC12F3B
:1001A0003D6C74319ABD56833DDA3D00C77F11BE68
:1001B000D9E4BB4C3E916BAAAABE000000803F056B
:1001C000A84CCDB2D44EB93836A9020C50B991869C
:1001D00088083CA6AAAA2ABE000000803F07634206
:1001E00036B79BD8A71A39685618AEBAAB558C1DCE
:1001F0003CB7CC5763BD6DEDFD753EF6177231BF50
:10020000000000803F08000000BE922449123EAB6F
:10021000AAAA2ABECDCCCC4C3E00000080BEABAA20
:10022000AAAA3E00000000BF000000803F000000BE
:100230000000084178D3BB4387D1133D190E3CC35E
:10024000BD4282AD2B3E68EC8276BED98FE1A93EDD
:100250004C80EFFFBE01C4FF7F3F000000000000A4
:100260000D94D3820D945C640D9429950D94C3254F
:100270000D94BB680D942E740D94955D0D942D9E78
:100280000D94BCB10D9468730D9460B20D943DB2A1
:100290000D941BB20D9442640D9478840D94D17327
:1002A0000D9454740D941B740D9455840D94C625AF
:1002B0000D94BE730D946A920D9408740D94B760FA
:1002C0000D94CA230D94B4B10D949E9E0D94E694A2
:1002D0000D9471740D9438620D94C4220D94C56A06
:1002E0000D94C0250D94261C0D94B6730D940B60CF
:1002F0000D94409E0D94AD5E0D9444B20D948A22EF
:100300000D9498B10D9402750D94DC9C0D94159D7F
:100310000D94BB5D0D9492690D94429D0D94C92579
:100320000D9424950D9471AB0D9470950D949E22AF
:100330000D94529E0D946D690D9499220D9456B2B0
:100340000D9438950D9447230D94585E0D94229E7C
:100350000D948F220D945A9D0D94D0B10D94A2B19D
:100360000D9494220D947D620D94F65E0D9464B20A
:100370000D94E2730D949B9E0D944EB20D94C6B1F4
:100380000D945CB20D9456950D945D6F0D94779E0F
:100390000D94DB810D94546F0D9441740D94087588
:1003A0000D94B7240D94F29C0D946A9E0D947223C3
:1003B0000D941F950D94AA9E0D94AA5F0D948B5DCC
:1003C0000D94DAB10D9447950D948D600D94A49E13
:1003D0000D946AB20D94BB660D94F3B10D947E72C8
:1003E0000D94E9B10D9477B20D9483760D9484B198
:1003F0000D940E750D94D5240D9404670D94345D01
:100400000D9446230D9423640D94587B0D94815DC7
:100410000D94666F0D9440B20D94C0220D9407B2F6
:100420000D94BC220D9414750D9448230D94575FC0
:100430000D940B670D9400950D9411B20D94059DCC
:100440000D94048F0D9489B10D9415650D94DA65A2
:100450000D9489230D94A0230D94B1630D94FDB1E7
:100460000D941C7D0D94A3AC0D94C2220D94EC232D
:100470000D94EB620D9444230D94F9740D94B15DC9
:100480000D94A19E0D946EB20D942FB20D94F57340
:100490000D9448B20D948F650D94ACB10D94445DEC
:1004A0000D9452B20D9452650D94EB940D94A79C4B
:1004B0000D94A3220D9472B20D940E940D944523C5
:1004C0000D94229D0D9446AA0D9439B20D94CC251D
:1004D0000D948EB10D944B5D0D94D7850D944E24E3
:1004E0000D9444640D94D7940D94BE220D9433B2B0
:1004F0000D94C6680D94089E6E616E00696E66006C
:100500006164635F696E69740A003F3F00506F6CFD
:10051000736B69004974616C69616E6F004672614A
:100520006E6361697300457370616E6F6C00446542
:1005300075747363680043657374696E6100456E1A
:10054000676C69736800FFFFFFFF5F5345435F4CB3
:10055000414E4700000000000000000000000000C5
:10056000000000000000000000000000000000008B
:10057000000000000000000000000000000000007B
:10058000000000000000000000000000000000006B
:10059000000000000000000000000000000000005B
:102F400000000000000000000000544D43204452E7
:102F500049564552204F56455254454D50005A202F
:102F60004F6666736574005A2070726F6265206FD9
:102F700075742E20626564007A5F6D696E3A200078
:102F80007A5F6D61783A2000205761746368646FDE
:102F90006720526573657400556E6B6E6F776E2097
:102FA000636F6D6D616E643A20220020536F66740A
:102FB0007761726520526573657400486F6D652096
:102FC000582F59206265666F7265205A004F6E2037
:102FD000004F666600446F6E6520736176696E67A8
:102FE0002066696C652E002045787465726E616C90
:102FF000205265736574002042726F776E206F7582
:103000007420526573657400FFFF50727573612000
:103010006933204D4B32452072656164792E00FF83
:10302000FF59657300FFFF596F752063616E206162
:103030006C7761797320726573756D65207468654E
:103040002057697A6172642066726F6D2043616CEB
:103050006962726174696F6E202D3E2057697A61D2
:1030600072642E00FFFF50726568656174696E6757
:10307000206E6F7A7A6C652E20506C6561736520C6
:10308000776169742E00FFFF416C6C2069732064C6
:103090006F6E652E204861707079207072696E7451
:1030A000696E672100FFFF506C656173652063687E
:1030B00065636B206F75722068616E64626F6F6B01
:1030C00020616E6420666978207468652070726F74
:1030D000626C656D2E205468656E20726573756D27
:1030E00065207468652057697A617264206279206E
:1030F0007265626F6F74696E6720746865207072A4
:10310000696E7465722E00FFFF496E666F207363EF
:103110007265656E00FFFF556E6C6F6164696E6766
:103120002066696C616D656E7400FFFF556E6C6F93
:1031300061642066696C616D656E7400FFFF5465A3
:103140006D70657261747572652063616C6962721D
:103150006174696F6E2069732066696E6973686552
:103160006420616E64206163746976652E20546505
:103170006D702E2063616C6962726174696F6E207C
:1031800063616E2062652064697361626C656420AE
:10319000696E206D656E752053657474696E677312
:1031A0002D3E54656D702E2063616C2E00FFFF5420
:1031B000656D702E2063616C2E2020202020202041
:1031C00020202000FFFF53544F505045442E200034
:1031D000FFFF53746F70207072696E7400FFFF49B7
:1031E0007320737465656C207368656574206F6EF9
:1031F00020686561746265643F00FFFF4D6F646520
:10320000202020205B537465616C74685D00FFFFB3
:103210004D6F646520202020205B4E6F726D616CC5
:103220005D00FFFF4D6F646520202020205B7369E7
:103230006C656E745D00FFFF4D6F6465205B6869AF
:10324000676820706F7765725D00FFFF5365747467
:10325000696E677300FFFF576972696E6720657258
:10326000726F7200FFFF4D6F746F7200FFFF436853
:1032700065636B696E672073656E736F7273200090
:10328000FFFF436865636B696E6720626564202099
:1032900020202000FFFF5370696E6E696E6700FF8B
:1032A000FF4E6F74207370696E6E696E6700FFFF6A
:1032B00046616E207465737400FFFF53656C66741D
:1032C000657374206661696C6564202000FFFF4CA3
:1032D00065667420686F74656E642066616E3F0079
:1032E000FFFF46726F6E74207072696E74206661A3
:1032F0006E3F00FFFF776F726B446972206F7065DD
:103300006E206661696C656400FFFF6F70656E20FA
:103310006661696C65642C2046696C653A2000FF23
:10332000FF6572726F722077726974696E672074BC
:103330006F2066696C6500FFFF506C6561736520E6
:1033400072656D6F766520737465656C2073686552
:1033500065742066726F6D20686561746265642EA5
:1033600000FFFF526573756D696E67207072696E3C
:103370007400FFFFF85265667265736800FFFF42D4
:103380006C61636B6F7574206F63637572726564D3
:103390002E205265636F766572207072696E743F7D
:1033A00000FFFF506C656173652070756C6C206F59
:1033B00075742066696C616D656E7420696D6D65EC
:1033C00064696174656C7900FFFF5072696E7420E6
:1033D00061626F7274656400FFFF506C65617365B4
:1033E00020707265737320746865206B6E6F622045
:1033F000746F20756E6C6F61642066696C616D65B9
:103400006E7400FFFF5072656865617420746865B2
:10341000206E6F7A7A6C652100FFFF506F776572BE
:10342000557000FFFF506C656173652077616974AA
:1034300000FFFF506C6561736520706C61636520EF
:10344000737465656C207368656574206F6E2068A1
:103450006561746265642E00FFFF506C61636520D6
:1034600061207368656574206F6620706170657295
:1034700020756E64657220746865206E6F7A7A6C50
:103480006520647572696E67207468652063616C7D
:103490006962726174696F6E206F6620666972730B
:1034A00074203420706F696E74732E204966207406
:1034B0006865206E6F7A7A6C6520636174636865F5
:1034C00073207468652070617065722C20706F774E
:1034D0006572206F666620746865207072696E740C
:1034E000657220696D6D6564696174656C792E0023
:1034F000FFFF6F6B00FFFF4E6F7A7A6C6500FFFF76
:103500004E6F00FFFF43616C6962726174696F6E98
:1035100000FFFF206F66203900FFFF4D6561737566
:1035200072696E67207265666572656E6365206894
:103530006569676874206F662063616C6962726197
:1035400074696F6E20706F696E7400FFFF4D616962
:103550006E00FFFF4D313137204669727374206C65
:10356000617965722063616C2E00FFFF4C6F6164AE
:10357000696E672066696C616D656E7400FFFF4C53
:103580006F61642066696C616D656E7400FFFF4356
:10359000686F6F73652066696C616D656E743A0063
:1035A000FFFF43686F6F736520657874727564659B
:1035B000723A00FFFF43616C696272617465205A60
:1035C00000FFFF48656174696E6720646F6E652E49
:1035D00000FFFF48656174696E6700FFFF46696C14
:1035E0002E2073656E736F7220205B6F6E5D00FF1F
:1035F000FF46696C2E2073656E736F72205B6F6679
:10360000665D00FFFF462E206175746F6C6F61640C
:10361000205B4E2F415D00FFFF5468657265206995
:1036200073207374696C6C2061206E65656420740E
:103630006F206D616B65205A2063616C69627261F5
:1036400074696F6E2E20506C6561736520666F6CB7
:103650006C6F7720746865206D616E75616C2C20CD
:103660006368617074657220466972737420737444
:103670006570732C2073656374696F6E2043616C91
:103680006962726174696F6E20666C6F772E00FFDD
:10369000FF5072696E74657220686173206E6F747A
:1036A000206265656E2063616C6962726174656435
:1036B000207965742E20506C6561736520666F6C8F
:1036C0006C6F7720746865206D616E75616C2C205D
:1036D00063686170746572204669727374207374D4
:1036E0006570732C2073656374696F6E2043616C21
:1036F0006962726174696F6E20666C6F772E00FF6D
:10370000FF46696E697368696E67206D6F76656DD7
:10371000656E747300FFFF206F66203400FFFF5357
:103720006561726368696E67206265642063616CBD
:103730006962726174696F6E20706F696E7400FFE8
:10374000FF4368616E67652066696C616D656E74C4
:1037500000FFFF496E736572742066696C616D6568
:103760006E7420696E746F2065787472756465720A
:1037700020342E20436C69636B207768656E20646B
:103780006F6E652E00FFFF496E7365727420666967
:103790006C616D656E7420696E746F2065787472EB
:1037A0007564657220332E20436C69636B207768E3
:1037B000656E20646F6E652E00FFFF496E73657243
:1037C000742066696C616D656E7420696E746F201B
:1037D000657874727564657220322E20436C69635B
:1037E0006B207768656E20646F6E652E00FFFF4961
:1037F0006E736572742066696C616D656E742069A4
:103800006E746F20657874727564657220312E2035
:10381000436C69636B207768656E20646F6E652EFC
:1038200000FFFF46696C616D656E74206578747287
:103830007564696E672026207769746820636F72EB
:103840007265637420636F6C6F723F00FFFF4661A7
:103850006E20737065656400FFFF46696C616D657D
:103860006E7400FFFF457874727564657200FFFF27
:103870004552524F523A00FFFF5072696E746572A2
:103880002073746F707065642064756520746F2098
:103890006572726F72732E20466978207468652095
:1038A0006572726F7220616E6420757365204D3988
:1038B000393920746F20726573746172742E2028F8
:1038C00054656D70657261747572652069732072DC
:1038D000657365742E205365742069742061667465
:1038E00065722072657374617274696E672900FF76
:1038F000FF656E717565696E67202200FFFF656E5A
:103900006473746F7073206869743A2000FFFF6FEE
:1039100070656E00FFFF54524947474552454400C9
:10392000FFFF4372617368206465742E2020205B62
:103930006F6E5D00FFFF4372617368206465742ED3
:1039400020205B6F66665D00FFFF43726173682035
:103950006465742E20205B4E2F415D00FFFF437293
:103960006173682064657465637465642E00FFFF8D
:10397000436F6F6C646F776E00FFFF506C6561730F
:103980006520636C65616E20746865206E6F7A7A5D
:103990006C6520666F722063616C69627261746924
:1039A0006F6E2E20436C69636B207768656E2064B0
:1039B0006F6E652E00FFFF5072696E742066726F25
:1039C0006D20534400FFFF43616C6962726174694A
:1039D0006E67205A00FFFF58595A2063616C696274
:1039E000726174696F6E206661696C65642E205027
:1039F0006C6561736520636F6E73756C7420746899
:103A000065206D616E75616C2E00FFFF426564205C
:103A10006C6576656C696E67206661696C65642E9D
:103A20002053656E736F72206469646E74207472C3
:103A300069676765722E20446562726973206F6ED4
:103A4000206E6F7A7A6C653F2057616974696E6782
:103A500020666F722072657365742E00FFFF4265E9
:103A6000642048656174696E6700FFFF42656420E9
:103A7000646F6E6500FFFF42656400FFFF44697379
:103A800074616E6365206265747765656E20746924
:103A900070206F6620746865206E6F7A7A6C65207E
:103AA000616E642074686520626564207375726657
:103AB00061636520686173206E6F74206265656E56
:103AC00020736574207965742E20506C6561736570
:103AD00020666F6C6C6F7720746865206D616E7501
:103AE000616C2C2063686170746572204669727322
:103AF000742073746570732C2073656374696F6EC2
:103B0000204669727374206C617965722063616C00
:103B10006962726174696F6E2E00FFFF4C69766591
:103B20002061646A757374205A00FFFF4D6F6465ED
:103B3000205B6175746F20706F7765725D00FFFFA9
:103B40004175746F20686F6D650050415439313292
:103B5000355F5245535F593D256868750A005041ED
:103B600054393132355F5245535F583D2568687589
:103B70000A005553415254322072782046756C6CBD
:103B80002121210A0048617264636F6465642044E6
:103B9000656661756C742053657474696E67732013
:103BA0004C6F616465640053746F72656420736563
:103BB0007474696E67732072657472696576656482
:103BC0000025534C696E65617220616476616E6395
:103BD000652073657474696E67733A0A2020204DFE
:103BE000393030204B252E3266202020452F4420AE
:103BF0003D20252E32660A00255346696C616D65AD
:103C00006E742073657474696E67733A20446973C7
:103C100061626C65640A00255346696C616D656E6E
:103C2000742073657474696E67733A0A2553202093
:103C3000204D3230302044252E32660A0025535262
:103C40006574726163743A20533D4C656E677468A5
:103C500020286D6D2920463A537065656420286DD3
:103C60006D2F6D29205A3A205A4C69667420286DB0
:103C70006D290A25532020204D3230372053252E20
:103C800032662046252E3266205A252E32660A25B7
:103C9000535265636F7665723A20533D457874726E
:103CA00061206C656E67746820286D6D2920463A26
:103CB000537065656420286D6D2F6D290A2553208A
:103CC00020204D3230382053252E32662046252EB6
:103CD00032660A25534175746F2D526574726163A3
:103CE000743A20533D3020746F2064697361626CB4
:103CF000652C203120746F20696E74657270726556
:103D00007420657874727564652D6F6E6C79206DA2
:103D10006F7665732061732072657472616374736A
:103D2000206F72207265636F7665726965730A250C
:103D3000532020204D323039205325640A0025536A
:103D400050494420686561746265642073657474C9
:103D5000696E67733A0A25532020204D3330342092
:103D600050252E32662049252E32662044252E32DB
:103D7000660A0025535049442073657474696E6760
:103D8000733A0A25532020204D3330312050252E00
:103D900032662049252E32662044252E32660A00DE
:103DA000255353746570732070657220756E697445
:103DB0003A0A255320204D39322058252E326620CC
:103DC00059252E3266205A252E32662045252E3260
:103DD000660A25534D6178696D756D206665656469
:103DE000726174657320286D6D2F73293A0A25530B
:103DF00020204D3230332058252E32662059252E72
:103E00003266205A252E32662045252E32660A2536
:103E1000534D6178696D756D20616363656C657282
:103E20006174696F6E20286D6D2F7332293A0A25EF
:103E30005320204D3230312058256C752059256C87
:103E400075205A256C752045256C750A25534163EC
:103E500063656C65726174696F6E3A20533D61638E
:103E600063656C65726174696F6E2C20543D726578
:103E7000747261637420616363656C6572617469F7
:103E80006F6E0A255320204D3230342053252E32B8
:103E9000662054252E32660A2553416476616E638E
:103EA0006564207661726961626C65733A20533D86
:103EB0004D696E20666565647261746520286D6D5C
:103EC0002F73292C20543D4D696E207472617665E4
:103ED0006C20666565647261746520286D6D2F7352
:103EE000292C20423D6D696E696D756D2073656783
:103EF0006D656E742074696D6520286D73292C20A2
:103F0000583D6D6178696D756D205859206A6572EC
:103F10006B20286D6D2F73292C20205A3D6D617800
:103F2000696D756D205A206A65726B20286D6D2F42
:103F300073292C2020453D6D6178696D756D204594
:103F4000206A65726B20286D6D2F73290A25532016
:103F5000204D3230352053252E32662054252E3206
:103F6000662042252E32662058252E32662059259D
:103F70002E3266205A252E32662045252E32660ABC
:103F80002553486F6D65206F666673657420286DD4
:103F90006D293A0A255320204D3230362058252EDF
:103FA00032662059252E3266205A252E32660A00A6
:103FB00053657474696E67732053746F726564001F
:103FC000454550524F4D204572726F7200FFFF46BB
:103FD000696C2E2073656E736F7220726573706FDB
:103FE0006E736520697320706F6F722C2064697323
:103FF00061626C652069743F00FFFF5072657373E6
:10400000206B6E6F6220746F2070726568656174DA
:10401000206E6F7A7A6C6520616E6420636F6E74B7
:10402000696E75652E00FFFF4B494C4C45442E20B0
:1040300000FFFF5072696E7465722068616C746570
:10404000642E206B696C6C28292063616C6C65643C
:104050002100FFFF48656174696E672064697361C0
:10406000626C65642062792073616665747920747E
:10407000696D65722E00FFFF526573656E6400FF07
:10408000FF4D32323120496E76616C69642065786B
:104090007472756465722000FFFF4D32313820491B
:1040A0006E76616C696420657874727564657220DF
:1040B00000FFFF4D31303920496E76616C69642014
:1040C00065787472756465722000FFFF4D3130357C
:1040D00020496E76616C69642065787472756465D8
:1040E000722000FFFF4D31303420496E76616C69DB
:1040F000642065787472756465722000FFFF4D322C
:10410000303020496E76616C696420657874727510
:104110006465722000FFFF4E6F206D6F76652E0084
:10412000FFFF5761697420666F7220757365722E88
:104130002E2E00FFFF426564206C6576656C696E0B
:1041400067206661696C65642E2053656E736F72BB
:104150002074726967676572656420746F6F206888
:104160006967682E2057616974696E6720666F728F
:104170002072657365742E00FFFF426564206C65D4
:1041800076656C696E67206661696C65642E205384
:10419000656E736F7220646973636F6E6E656374AE
:1041A0006564206F72206361626C652062726F6B60
:1041B000656E2E2057616974696E6720666F722084
:1041C00072657365742E00FFFF537461626C652025
:1041D000616D6269656E742074656D70657261747D
:1041E0007572652032312D323643206973206E6539
:1041F0006564656420612072696769642073746115
:104200006E642069732072657175697265642E0031
:10421000FFFF506C656173652072756E2058595AA6
:104220002063616C6962726174696F6E2066697285
:1042300073742E00FFFF536C6565702E2E2E00FFE9
:10424000FF46696C2E2073656E736F722072657302
:10425000706F6E736520697320706F6F722C2064AD
:10426000697361626C652069743F00FFFF506C6583
:10427000617365206F70656E2069646C6572206182
:104280006E642072656D6F76652066696C616D6520
:104290006E74206D616E75616C6C792E00FFFF5736
:1042A00061732066696C616D656E7420756E6C6FEC
:1042B0006164207375636365737366756C3F00FF9B
:1042C000FF4F6C642073657474696E677320666F4A
:1042D000756E642E2044656661756C742050494487
:1042E0002C20457374657073206574632E20776984
:1042F0006C6C206265207365742E00FFFF5761723D
:104300006E696E673A20626F7468207072696E74AD
:104310006572207479706520616E64206D6F7468B9
:104320006572626F61726420747970652063686180
:104330006E6765642E00FFFF5761726E696E673AA3
:10434000207072696E74657220747970652063687C
:10435000616E6765642E00FFFF5761726E696E675C
:104360003A206D6F74686572626F6172642074794F
:104370007065206368616E6765642E00FFFF202012
:10438000506C616E6E6572427566666572427974D4
:1043900065733A2000FFFF2046726565204D656D0C
:1043A0006F72793A2000FFFF204C617374205570C2
:1043B00064617465643A2000706879736963616C44
:1043C00020636F6F7264696E617465733A2028258B
:1043D0002E33662C20252E33662C20252E3366297D
:1043E0000A00776F726C6420636F6F7264696E612C
:1043F0007465733A2028252E33662C20252E3366CB
:104400002C20252E3366290A000A5A207368696613
:1044100074206170706C6965643A252E33660A00F9
:104420004B494C4C3A2025640A000025533A20257C
:104430006C640A25530A004E6F7420696E20666111
:10444000726D206D6F64652E00416374697665201E
:1044500045787472756465723A2000496E76616CB5
:10446000696420657874727564657200795F6D693E
:104470006E3A2000785F6D696E3A20005265706F69
:104480007274696E6720656E6473746F70207374E4
:1044900061747573000053494C454E54004E4F52A1
:1044A0004D414C002553204D4F44453A20506572F4
:1044B00063656E7420646F6E653A2025643B2070DE
:1044C00072696E742074696D652072656D61696EC4
:1044D000696E6720696E206D696E733A2025640AE3
:1044E00000456E642066696C65206C6973740042D7
:1044F0006567696E2066696C65206C697374002558
:10450000643A2025640A000A50494E4441207465EB
:104510006D70657261747572653A20252E31662062
:104520005A20736869667420286D6D293A20252EFB
:104530003366000A537465703A2025642F360A00EA
:104540000A537465703A2025642F362028736B69EE
:1045500070706564290A50494E44412074656D703D
:10456000657261747572653A202564205A207368FB
:1045700069667420286D6D293A300A000A5A45523E
:104580004F3A20252E33660A0073746172742074CA
:10459000656D70657261747572653A20252E31669D
:1045A0000A0025642020252E326600255320583A23
:1045B00020252E356620593A20252E3566205A3A78
:1045C00020252E35660A004E6F7420696E206661C4
:1045D000726D206D6F64652E0025640045303A25AC
:1045E000642052504D0A50524E303A2564205250A9
:1045F0004D0A0025640020436F756E7420583A20E0
:1046000000207C20417574686F723A20006F6B0A3D
:10461000002046004731205A0020460047312045FF
:10462000004D38330020423A0020453A00543A0009
:104630005A206C6976652061646A757374206F75A1
:1046400074206F662072616E67652E2053657474E6
:10465000696E6720746F20302E20436C69636B2075
:10466000746F20636F6E74696E75652E005A206CCE
:104670006976652061646A757374206F7574206F44
:10468000662072616E67652E2053657474696E676B
:1046900020746F2030004D373031004175746F0049
:1046A00020452F443D00416476616E6365204B3D9B
:1046B0000020573A0020453A00543A002228322977
:1046C000005400496E76616C6964205420636F6405
:1046D000652E00556E6B6E6F776E204D20636F6494
:1046E000653A202573200A006E6F2076616C69643C
:1046F00020636F6D6D616E64002C20002C20002CF7
:1047000020006E2F61002C20002C20002C20006E39
:104710002F61002F00503A005761697420666F7254
:104720002050494E4441207461726765742074655D
:104730006D70657261747572653A004C414E472028
:1047400053454C20464F524345440022283129000E
:1047500030303030303030302D303030302D30305F
:1047600030302D303030302D30303030303030304F
:10477000303030300020555549443A003100204552
:10478000585452554445525F434F554E543A005089
:1047900072757361206933204D4B324500204D41C5
:1047A0004348494E455F545950453A00312E300038
:1047B000206261736564206F6E204D61726C696E5A
:1047C000204649524D574152455F55524C3A687404
:1047D0007470733A2F2F6769746875622E636F6DFA
:1047E0002F707275736133642F50727573612D462B
:1047F00069726D776172652050524F544F434F4C30
:104800005F56455253494F4E3A004649524D574123
:1048100052455F4E414D453A50727573612D466960
:10482000726D7761726520004D3131332053002065
:10483000423A0020453A00543A0020503A002042C3
:10484000403A0020403A00202F003A002054002037
:104850002F0020423A00202F006F6B20543A002591
:1048600069206D696E2C2025692073656300496E8F
:1048700076616C6964204D20636F64653A2025730E
:10488000200A00556E6B6E6F776E204720636F6451
:10489000653A202573200A004D65736820626564BF
:1048A000206C6576656C696E67206E6F742061633D
:1048B000746976652E000A002020000A4D65617338
:1048C0007572656420706F696E74733A000A5A20BD
:1048D000736561726368206865696768743A20006F
:1048E0002C004E756D20582C593A2000206D6963BC
:1048F000726F6E73004578636573736976652062C5
:104900006564206C6576656C696E6720636F727292
:10491000656374696F6E3A20004732382057300063
:1049200050494E44412070726F62652063616C692A
:1049300062726174696F6E207374617274004732C1
:1049400038205730004D32340067636F64655F4D27
:1049500037303120626567696E0A004D323230208F
:104960005325690020453A00205A3A0020593A0060
:1049700020453A00205A3A0020593A00583A00435C
:10498000616C6962726174696F6E206661696C65E1
:10499000642120436865636B2074686520617865D5
:1049A0007320616E642072756E20616761696E2E7E
:1049B000004D323900627573793A20706175736504
:1049C0006420666F7220696E707574006275737909
:1049D0003A2070617573656420666F722075736527
:1049E0007200627573793A2070726F6365737369D0
:1049F0006E67002055706C6F616420696E20707264
:104A00006F677265737300536570203230203230E7
:104A1000313800436F6D70696C65643A2000286E10
:104A20006F6E652C2064656661756C7420636F6EB3
:104A30006669672900536570203230203230313882
:104A40002030333A30393A30320020332E342E3091
:104A50002D313332370A007374617274004661631A
:104A6000746F7279205245534554001B5B324A1BC8
:104A70005B313B31484F726967696E616C205072DF
:104A80007573612069331B5B323B33485072757319
:104A900061205265736561726368002500202020E3
:104AA0002020200020202020202000455241534972
:104AB0004E4720616C6C20646174610046616374D0
:104AC0006F727920524553455400FFFFFF0000A04C
:104AD000400000A0400000004000007A43333354FF
:104AE000439AD9514300000000CDCC0CC09A9919CB
:104AF0003E00007A43000052430000524300000091
:104B000000CDCC0CC09A99193E6563686F3A004598
:104B100072726F723A0000002110422063308440AC
:104B2000A550C660E770088129914AA16BB18CC17C
:104B3000ADD1CEE1EFF13112100273325222B552F3
:104B40009442F772D662399318837BB35AA3BDD3CC
:104B50009CC3FFF3DEE36224433420040114E664C3
:104B6000C774A44485546AA54BB528850995EEE51C
:104B7000CFF5ACC58DD55336722611163006D776D3
:104B8000F6669556B4465BB77AA719973887DFF76C
:104B9000FEE79DD7BCC7C448E5588668A77840089B
:104BA000611802282338CCC9EDD98EE9AFF94889BC
:104BB00069990AA92BB9F55AD44AB77A966A711A33
:104BC000500A333A122AFDDBDCCBBFFB9EEB799B0C
:104BD000588B3BBB1AABA66C877CE44CC55C222C83
:104BE000033C600C411CAEED8FFDECCDCDDD2AAD5C
:104BF0000BBD688D499D977EB66ED55EF44E133E13
:104C0000322E511E700E9FFFBEEFDDDFFCCF1BBFAB
:104C10003AAF599F788F8891A981CAB1EBA10CD185
:104C20002DC14EF16FE18010A100C230E32004508D
:104C3000254046706760B9839893FBA3DAB33DC300
:104C40001CD37FE35EF3B1029012F322D2323542DD
:104C5000145277625672EAB5CBA5A89589856EF590
:104C60004FE52CD50DC5E234C324A014810466742D
:104C7000476424540544DBA7FAB79987B8975FE7E0
:104C80007EF71DC73CD7D326F2369106B01657667D
:104C90007676154634564CD96DC90EF92FE9C89968
:104CA000E9898AB9ABA94458654806782768C018CD
:104CB000E1088238A3287DCB5CDB3FEB1EFBF98B40
:104CC000D89BBBAB9ABB754A545A376A167AF10A1D
:104CD000D01AB32A923A2EFD0FED6CDD4DCDAABD50
:104CE0008BADE89DC98D267C076C645C454CA23C6D
:104CF000832CE01CC10C1FEF3EFF5DCF7CDF9BAF20
:104D0000BABFD98FF89F176E367E554E745E932EBC
:104D1000B23ED10EF01E7C3C3E5E2B3D3F2F5B5DD4
:104D20003B2C2A225C00FFFF536F7274696E672070
:104D300066696C657300FFFF536F6D652066696C73
:104D400065732077696C6C206E6F742062652073C8
:104D50006F727465642E204D61782E204E6F2E2068
:104D60006F662066696C657320696E203120666FFE
:104D70006C64657220666F7220736F7274696E67FF
:104D8000206973203130302E00FFFF43616E6E6F5B
:104D90007420656E746572207375626469723A205E
:104DA00000FFFF53442063617264206F6B00FFFFBC
:104DB0006F70656E526F6F74206661696C65640018
:104DC000FFFF766F6C756D652E696E697420666184
:104DD000696C656400FFFF534420696E6974206646
:104DE00061696C004D3234004D323320257300610F
:104DF00075746F25692E67004E6F742053442070C0
:104E000072696E74696E67005072696E74207361A6
:104E1000766564005344207072696E742070617509
:104E2000736564000A002F005344207072696E7429
:104E3000696E672062797465200057726974696EC3
:104E40006720746F2066696C653A200046696C655E
:104E50002073656C6563746564002053697A653AF4
:104E6000200046696C65206F70656E65643A2000AD
:104E70000A002E0044656C6574696F6E2066616976
:104E80006C65642C2046696C653A200046696C6547
:104E90002064656C657465643A002E002E002E0057
:104EA0002E004E6F772066726573682066696C65A8
:104EB0003A20004E6F7720646F696E672066696CD8
:104EC000653A20002220706F7300222070617265A5
:104ED0006E743A2200535542524F5554494E452064
:104EE00043414C4C207461726765743A22007472BD
:104EF00079696E6720746F2063616C6C20737562D2
:104F00002D67636F64652066696C657320776974CB
:104F10006820746F6F206D616E79206C6576656CAA
:104F2000732E204D4158206C6576656C2069733A6C
:104F300000256920686F757273202569206D696E80
:104F40007574657300446F6E65207072696E746964
:104F50006E672066696C65004E6F204C696E652037
:104F60004E756D6265722077697468206368656349
:104F70006B73756D2C204C617374204C696E653AAF
:104F800020004C696E65204E756D626572206973F4
:104F9000206E6F74204C617374204C696E65204ED6
:104FA000756D6265722B312C204C617374204C69D5
:104FB0006E653A200054494D454F55543A00FFFF65
:104FC0004E6F20436865636B73756D2077697468F5
:104FD000206C696E65206E756D6265722C204C6167
:104FE0007374204C696E653A2000FFFF6368656347
:104FF0006B73756D206D69736D617463682C204CE3
:10500000617374204C696E653A20004D3131300077
:1050100046756C6C20525820427566666572002297
:10502000206661696C65643A204275666665722027
:1050300066756C6C2100456E717565696E672074CC
:105040006F207468652066726F6E743A20220022A9
:1050500000456E717565696E6720746F20746865B0
:105060002066726F6E743A20220022206661696C9D
:1050700065643A204275666665722066756C6C21BF
:105080000022004D363030006673656E736F725FBC
:10509000757064617465202D204D3630300A0066CD
:1050A00073656E736F725F6572725F636E74203DBD
:1050B00020300A0047312045332046323030004747
:1050C0003120452D332046323030006673656E73D3
:1050D0006F725F6F715F726573756C742025530A10
:1050E000002073685F617667203D20256868752021
:1050F00025530A002079645F717561203D20257574
:105100000A002079645F646576203D2025750A00D9
:105110002079645F6D696E203D2025752025530A36
:10512000002079645F6D6178203D2025752025532E
:105130000A002079645F617667203D2025686875E4
:105140002025530A002065725F6D6178203D20257F
:105150006868752025530A002065725F73756D209D
:105160003D2025752025530A006673656E736F72A6
:105170005F6F715F726573756C740A002079645F8C
:105180006D696E3D25752079645F6D61783D25758B
:105190002079645F6176673D25752073685F61766D
:1051A000673D25750A002073745F73756D3D257525
:1051B0002079645F73756D3D25752065725F737529
:1051C0006D3D25752065725F6D61783D2568687558
:1051D0000A006673656E736F725F6175746F6C6FD2
:1051E00061645F636865636B5F73746F70202D200B
:1051F0006175746F6C6F61642044495341424C4542
:10520000440A006673656E736F725F6175746F6CCC
:105210006F61645F636865636B5F73746172742050
:105220002D206175746F6C6F616420454E41424C56
:1052300045440A006673656E736F725F6F715F6DD0
:10524000656173737572655F73746F702C20256868
:1052500068752073616D706C65730A006673656EA6
:10526000736F725F6F715F6D656173737572655F88
:1052700073746172740A00504154393132355F6978
:105280006E69743A256868750A004653656E736FD7
:10529000722025530A0044495341424C45440A00B8
:1052A000454E41424C454400504154393132355FFE
:1052B000696E69743A256868750A006673656E736D
:1052C0006F725F726573746F72655F7072696E740E
:1052D0005F616E645F636F6E74696E75650A006608
:1052E00073656E736F725F73746F705F616E645F0E
:1052F000736176655F7072696E740A004E472100B3
:105300004F4B0050415439313235206E6F7420724A
:105310006573706F6E64696E672028256429210AA1
:1053200000000103161C0800000000110A04110A05
:10533000041F1F1F1F1F1F1F1F0000000000110A56
:1053400004000E1315110E000000041209120400CF
:1053500000001C1F11111F00000006191803130C78
:1053600000040E1F041C000000040A0A0A0A11119E
:105370000E0C12120C00000000001F1511151F006A
:10538000002563252D3138532563002563252E31F3
:1053900032533A2573252B30362E336600202020D9
:1053A00020202020202020202020202020202020FD
:1053B00020002563252E3132533A2573252B3036B4
:1053C0002E3166002563252E3135533A257325335A
:1053D0006400457872656D65207370616E206F663C
:1053E00020746865205A2076616C756573210043CE
:1053F000616C63756C6174696F6E206F6620746890
:1054000065206D616368696E6520736B65772061E7
:105410006E64206F6666736574206661696C65648E
:105420002E00FFFF496D70726F76696E67206265AE
:10543000642063616C6962726174696F6E20706F61
:10544000696E7400FFFF497465726174696F6E2044
:1054500000203C20005741524E494E473A204672A8
:105460006F6E7420706F696E74206E6F7420726539
:1054700061636861626C652E205920636F6F72648E
:10548000696E6174653A0000497465726174696F90
:105490006E3A200000004041000080C00000E4425D
:1054A000000080C000005743000080C00000574348
:1054B0000000B8420000E4420000B8420000404151
:1054C0000000B8420000404100003E430000E442BA
:1054D00000003E430000574300003E430000E4420A
:1054E000000080C0000057430000B8420000E442C2
:1054F00000003E43000040410000B84246696C6134
:105500006D656E74206E72206F7574206F662072E8
:10551000616E67652100FFFF506C656173652072E5
:10552000656D6F76652066696C616D656E7420616E
:105530006E64207468656E20707265737320746881
:1055400065206B6E6F622E00FFFF456A65637469AC
:105550006E672066696C616D656E7400FFFF506C4C
:105560006561736520757064617465206669726D2C
:105570007761726520696E20796F7572204D4D5587
:10558000322E2057616974696E6720666F722072CF
:10559000657365742E00FFFF52656D6F7665206F31
:1055A0006C642066696C616D656E7420616E642048
:1055B000707265737320746865206B6E6F622074FF
:1055C0006F207374617274206C6F6164696E672000
:1055D0006E65772066696C616D656E742E00FFFFE5
:1055E0004D4D55204F4B2E20526573756D696E677A
:1055F0002E2E2E00FFFF4D4D55204F4B2E20526575
:1056000073756D696E6720706F736974696F6E2E44
:105610002E2E00FFFF4D4D55204F4B2E205265730F
:10562000756D696E672074656D70657261747572F1
:10563000652E2E2E00FFFF4D4D55206E656564735F
:10564000207573657220617474656E74696F6E2E57
:1056500020466978207468652069737375652061D8
:105660006E64207468656E20707265737320627555
:1056700074746F6E206F6E204D4D5520756E697479
:105680002E004D4D5532206669726D77617265202E
:1056900076657273696F6E20696E76616C69642ECF
:1056A0002052657175697265642076657273696FE1
:1056B0006E3A206275696C64206E756D6265722049
:1056C0002564206F72206869676865722E004D3707
:1056D0003031204534004D373031204533004D37CF
:1056E0003031204532004D373031204531004D37C3
:1056F0003031204530004D373031204534004D37B2
:105700003031204533004D373031204532004D37A0
:105710003031204531004D37303120453000466969
:105720006C616D656E74206F7574206F6620726198
:105730006E6765202564200A004D4D552073746105
:1057400072747320726573706F6E64696E670A009D
:105750004D4D55206E6F7420726573706F6E646965
:105760006E670A004625642025640A004D4D5520C9
:105770003C3D2027462564202564270A004D36300D
:1057800030004D363030204155544F004653454E81
:10579000534F525F5245434F564552002568687536
:1057A0000050300A0052300A004525640A00553086
:1057B0000A0043300A004C25640A005425640A009C
:1057C0004D4D55202D20454E41424C454400256805
:1057D00068750050300A004D4D552076657273692A
:1057E0006F6E2076616C69640025750053320A0083
:1057F0002575004D4D55206E6F7420726573706F66
:105800006E64696E67202D2044495341424C4544E3
:105810000053310A0073746172740A006F6B0A00DE
:105820000000803F555585410000803F0000C84181
:1058300000000040555505420000C03F00004842AE
:105840000000204055558542000070C1ABAAA64219
:10585000000060C10000A0410000C0C00000204165
:1058600000002041ABAA3A41000020C15555D54067
:10587000000048C25555054220746F6F206C6F6E52
:105880006720657874727573696F6E2070726576C3
:10589000656E74656400FFFF20636F6C642065783B
:1058A00074727573696F6E2070726576656E74655B
:1058B000640045303A20005A3A2000593A200058F6
:1058C0003A20004D53312C4D53322050696E730AEB
:1058D00000FFFF537465707261746520746F6F20F0
:1058E000686967683A2000205A3A0020593A002037
:1058F000583A0024F4D43050C38E20C2A2401782FC
:105900008B7011127A910D816CD90AA861E108C7D8
:10591000586607615143061E4B5D05C145A7041A31
:10592000411104093D9803713931034036DB0265AA
:10593000339102D4305402802E1D02632CEE017587
:105940002AC501B028A001102781018F2564012BF1
:10595000244B01E0223401AC211F018D200D018078
:105960001FFC00841EED00971DDF00B81CD200E66E
:105970001BC600201BBC00641AB200B219A8000AA2
:1059800019A0006A189900D117910040178B00B533
:1059900016840031167E00B31579003A157300C7DE
:1059A000146F0058146A00EE136600881363002514
:1059B000135E00C7125B006C12570015125400C131
:1059C00011510070114F0021114B00D61049008D6C
:1059D0001047004610440002104200C00F400080F3
:1059E0000F3E00420F3C00060F3B00CB0E380093E9
:1059F0000E37005C0E3500270E3400F30D3200C167
:105A00000D3100900D3000600D2E00320D2D00057F
:105A10000D2C00D90C2B00AE0C2900850C29005C44
:105A20000C2700350C27000E0C2600E80B2400C4C0
:105A30000B2400A00B23007D0B23005A0B210039FF
:105A40000B2100180B2000F80A1F00D90A1E00BB0A
:105A50000A1E009D0A1D00800A1D00630A1C0047E3
:105A60000A1B002C0A1B00110A1A00F7091A00DD94
:105A7000091900C4091900AB091900920917007B24
:105A8000091800630917004C091600360916002092
:105A90000916000A091500F5081500E0081400CCE5
:105AA000081400B8081400A4081400900813007D1E
:105AB0000812006B08130058081200460812003440
:105AC000081100230811001208110001081100F04C
:105AD000071000E0071000D0071000C0071000B04A
:105AE000070F00A107100091070E0083070F007435
:105AF000070F0065070E0057070E0049070E003B11
:105B0000070D002E070E0020070D0013070D0006DD
:105B1000070D00F9060C00ED060D00E0060C00D4A0
:105B2000060C00C8060C00BC060C00B0060C00A455
:105B3000060B0099060C008D060B0082060B007701
:105B4000060B006C060B0061060A0057060B004CA2
:105B5000060A0042060A0038060A002E060A002439
:105B6000060A001A060A001006090007060A00FDC8
:105B7000050900F4050900EB050900E2050900D953
:105B8000050900D0050900C7050900BE050900B5D3
:105B9000050800AD050800A50509009C050800944E
:105BA0000508008C050800840508007C05080074C1
:105BB0000508006C050700650508005D050700562F
:105BC0000508004E05070047050700400508003896
:105BD000050700310507002A050700230507001CFB
:105BE000050600160507000F050700080506000258
:105BF000050700FB040600F5040700EE040600E8B4
:105C0000040600E2040700DB040600D5040600CF0A
:105C1000040600C9040600C3040600BD040600B75C
:105C2000040600B1040500AC040600A6040600A0AA
:105C30000405009B04060095040500900406008AF4
:105C400004050085040500800406007A040500753B
:105C5000040500700405006B04050066040500617E
:105C60000405005C04050057040500520405004DBE
:105C700004050048040500430405003E0404003AFE
:105C800004050035040500300404002C0405002739
:105C9000040400230405001E0404001A0404001672
:105CA000040500110404000D0404000904050004A7
:105CB00004040000040400FC030400F8030400F4DE
:105CC000030400F0030400EC030400E8030400E410
:105CD000030400E0030400DC030400D8030400D440
:105CE000030400D0030400CC030400C8030300C570
:105CF00003030024F404D9201BC40C5C0E9804C4D4
:105D0000095F0265077101F405F900FB04B300485F
:105D1000048700C10369005803550003034500BE12
:105D2000023A008402310053022A002902250004AD
:105D3000022000E4011C00C8011900AF01170098FF
:105D40000114008401130071011000610110005161
:105D5000010E0043010D0036010B002B010B00204A
:105D6000010B00150109000C01090003010800FBEB
:105D7000000800F3000800EB000700E4000600DE66
:105D8000000600D8000600D2000600CC000500C7BF
:105D9000000500C2000500BD000400B9000400B504
:105DA000000400B1000400AD000400A9000400A537
:105DB000000300A20003009F0004009B0003009862
:105DC0000003009500020093000300900003008D83
:105DD0000002008B0003008800020086000200849D
:105DE000000300810002007F0002007D0002007BB2
:105DF00000020079000200770001007600020074C2
:105E000000020072000100710002006F0002006DCC
:105E10000001006C0002006A0001006900020067D6
:105E200000010066000100650001006400020062DC
:105E300000010061000100600001005F0002005DE0
:105E40000001005C0001005B0001005A00010059E4
:105E500000010058000100570001005600010055E4
:105E600000010054000100530000005300010052E3
:105E700000010051000100500001004F0001004EE0
:105E80000000004E0001004D0001004C0001004BDD
:105E90000000004B0001004A0001004900010048D9
:105EA00000000048000100470001004600000046D5
:105EB00000010045000000450001004400010043CE
:105EC00000000043000100420000004200010041C8
:105ED00000000041000100400001003F0000003FC1
:105EE0000001003E0000003E0001003D0000003DBA
:105EF0000001003C0000003C0000003C0001003BB1
:105F00000000003B0001003A0000003A00010039A7
:105F1000000000390001003800000038000000389F
:105F20000001003700000037000100360000003695
:105F3000000000360001003500000035000000358B
:105F40000001003400000034000000340001003380
:105F50000000003300000033000100320000003276
:105F6000000000320001003100000031000000316B
:105F70000001003000000030000000300001002F60
:105F80000000002F0000002F0000002F0001002E55
:105F90000000002E0000002E0001002D0000002D4A
:105FA0000000002D0000002D0001002C0000002C3E
:105FB0000000002C0000002C0001002B0000002B32
:105FC0000000002B0000002B0001002A0000002A26
:105FD0000000002A0000002A00010029000000291A
:105FE000000000290000002900000029000100280D
:105FF0000000002800000028000000280000002801
:1060000000010027000000270000002700000027F3
:1060100000000027000100260000002600000026E6
:1060200000000026000000260001002500000025D9
:1060300000000025000000250000002500000025CC
:1060400000010024000000240000002400000024BF
:1060500000000024000100230000002300000023B2
:1060600000000023000000230000002300000023A4
:106070000001002200000022000000220000002297
:106080000000002200000022000100210000002189
:10609000000000210000002100000021000000217C
:1060A000000000210001002000000020000000206E
:1060B0000000002000000020000000200000002060
:1060C000000000200001001F0000001F0000001F52
:1060D0000000001F0000001F0000001F0000001F44
:1060E0000001001E0000001E0000001E0000001E37
:1060F0000000004572723A204D494E54454D5020E3
:106100004245440054656D70657261747572652016
:10611000686561746564206265642073776974637F
:10612000686564206F66662E204D494E54454D507B
:106130002074726967676572656420210045727218
:106140003A204D415854454D502042454400546535
:106150006D706572617475726520686561746564DF
:1061600020626564207377697463686564206F6674
:10617000662E204D415854454D5020747269676712
:10618000657265642021004572723A204D494E5473
:10619000454D50003A2045787472756465722073DD
:1061A00077697463686564206F66662E204D494E7A
:1061B00054454D502074726967676572656420218B
:1061C000004572723A204D415854454D50003A20D6
:1061D0004578747275646572207377697463686555
:1061E00064206F66662E204D415854454D502074F2
:1061F000726967676572656420210020484F5445C5
:106200004E4420544845524D414C2052554E415722
:106210004159002048454154424544205448455284
:106220004D414C2052554E4157415900544845521A
:106230004D414C2052554E41574159004245442052
:10624000544845524D414C2052554E4157415900FA
:1062500020544845524D414C2052554E41574159CA
:106260002028205052454845415420484F54454E1F
:1062700044290020544845524D414C2052554E412E
:1062800057415920282050524548454154204845FF
:106290004154424544290050524548454154204507
:1062A00052524F52004245442050524548454154B5
:1062B000204552524F5200504944204175746F742A
:1062C000756E652066696E69736865642120507516
:1062D0007420746865206C617374204B702C204BA3
:1062E0006920616E64204B6420636F6E7374616E0D
:1062F00074732066726F6D2061626F766520696EBF
:10630000746F20436F6E66696775726174696F6E32
:106310002E6800504944204175746F74756E652075
:106320006661696C6564212074696D656F757400C0
:1063300020403A00543A00423A0050494420417506
:10634000746F74756E65206661696C656421205494
:10635000656D706572617475726520746F6F206809
:1063600069676800204B643A2000204B693A20009E
:10637000204B703A200020436C6173736963205096
:10638000494420002054753A2000204B753A2000E3
:10639000206D61783A2000206D696E3A20002064FB
:1063A0003A200020626961733A20001000C902108F
:1063B000012C014001220170011801B0010E01F011
:1063C0000104015002FA00B002F0003003E600D0F0
:1063D00003DC009004D2007005C800A006BE0000D7
:1063E00008B400B009AA00D00BA000600E960060AF
:1063F000118C000015820020197800C01D6E00A0CD
:10640000226400B0275A00902C500000314600E072
:10641000343C0010383200903A2800603C1E00A046
:106420003D1400803E0A00203F000070012C0190C6
:10643000012701B0012201C0011D01F00118011066
:1064400002130130020E016002090190020401C032
:1064500002FF000003FA004003F5008003F000D0C3
:1064600003EB002004E6007004E100E004DC0040DF
:1064700005D700C005D2004006CD00D006C8008078
:1064800007C3003008BE00F008B900C009B400B06E
:106490000AAF00B00BAA00D00CA500000EA000505F
:1064A0000F9B00C01096005012910000148C00C089
:1064B000158700B0178200B0197D00D01B7800004E
:1064C0001E730040206E0090226900F0246400409A
:1064D000275F0090295A00E02B5500102E50002015
:1064E000304B0010324600E033410090353C001044
:1064F00037370070383200A0392D00B03A2800A09C
:106500003B2300603C1E00103D1900903D1400101C
:106510003E0F00703E0A00C03E0500003F0000FF35
:10652000FF436172642072656D6F76656400FFFFE2
:106530004361726420696E73657274656400FFFF65
:1065400046696C6520696E636F6D706C6574652E4D
:1065500020436F6E74696E756520616E797761791D
:106560003F00FFFF46696C616D656E742073656E58
:10657000736F723A00FFFF5072696E742066616E2D
:106580003A00FFFF45787472756465722066616E2B
:106590003A00FFFF416C6C20636F72726563742078
:1065A000202020202000FFFF436865636B696E6731
:1065B000205A2061786973202000FFFF43686563DB
:1065C0006B696E6720592061786973202000FFFF96
:1065D000436865636B696E67205820617869732032
:1065E0002000FFFF436865636B696E6720686F7406
:1065F000656E64202000FFFF436865636B696E670A
:1066000020656E6473746F707300FFFF46696C6180
:106610006D656E742073656E736F7200FFFF537744
:10662000617070656400FFFF46726F6E742F6C6559
:1066300066742066616E7300FFFF4178697300FF26
:10664000FF41786973206C656E67746800FFFF4CCA
:106650006F6F73652070756C6C657900FFFF456E18
:106660006473746F70206E6F742068697400FFFF2C
:10667000456E6473746F7000FFFF456E6473746FD2
:10668000707300FFFF426564202F204865617465C8
:106690007200FFFF4E6F7420636F6E6E65637465EA
:1066A0006400FFFF4865617465722F546865726D00
:1066B0006973746F7200FFFF506C656173652063CE
:1066C0006865636B203A00FFFF53656C6674657301
:1066D00074206572726F72202100FFFF53656C6633
:1066E0002074657374204F4B00FFFF53656C662068
:1066F00074657374207374617274202000FFFF4509
:1067000072726F72202D20737461746963206D65DD
:106710006D6F727920686173206265656E206F7697
:1067200065727772697474656E00FFFF506C656105
:106730007365206C6F616420504C412066696C6108
:106740006D656E7420616E64207468656E2072657C
:1067500073756D652057697A617264206279207261
:1067600065626F6F74696E67207468652070726906
:106770006E7465722E00FFFF506C65617365206357
:106780006C65616E206865617462656420616E6429
:10679000207468656E20707265737320746865205C
:1067A0006B6E6F622E00FFFF446F20796F7520774C
:1067B000616E7420746F20726570656174206C6105
:1067C0007374207374657020746F20726561646ADD
:1067D0007573742064697374616E63652062657497
:1067E0007765656E206E6F7A7A6C6520616E6420C5
:1067F000686561746265643F00FFFF492077696CDA
:106800006C20737461727420746F207072696E747E
:10681000206C696E6520616E6420796F75207769E0
:106820006C6C206772616475616C6C79206C6F7739
:10683000657220746865206E6F7A7A6C6520627963
:1068400020726F746174696E6720746865206B6E66
:106850006F622C20756E74696C20796F752072657B
:10686000616368206F7074696D616C206865696729
:1068700068742E20436865636B20746865207069B6
:1068800063747572657320696E206F75722068611C
:106890006E64626F6F6B20696E20636861707465EF
:1068A000722043616C6962726174696F6E2E00FFC1
:1068B000FF4E6F7720492077696C6C2063616C69AB
:1068C00062726174652064697374616E63652062CD
:1068D00065747765656E20746970206F66207468D2
:1068E00065206E6F7A7A6C6520616E6420686561E0
:1068F0007462656420737572666163652E00FFFFC4
:10690000497320697420504C412066696C616D6543
:106910006E743F00FFFF506C6561736520696E7394
:1069200065727420504C412066696C616D656E74AF
:1069300020746F2074686520657874727564657260
:106940002C207468656E207072657373206B6E6F97
:106950006220746F206C6F61642069742E00FFFFE9
:106960004E6F7720492077696C6C2070726568657E
:106970006174206E6F7A7A6C6520666F7220504C5D
:10698000412E00FFFF49732066696C616D656E746E
:10699000206C6F616465643F00FFFF492077696C7C
:1069A0006C2072756E207A2063616C69627261740A
:1069B000696F6E206E6F772E00FFFF492077696C3C
:1069C0006C2072756E2078797A2063616C696272CE
:1069D0006174696F6E206E6F772E2049742077691D
:1069E0006C6C2074616B6520617070726F782E2002
:1069F0003132206D696E732E00FFFF466972737429
:106A00002C20492077696C6C2072756E2074686543
:106A10002073656C667465737420746F2063686599
:106A2000636B206D6F737420636F6D6D6F6E20618B
:106A30007373656D626C792070726F626C656D73D3
:106A40002E00FFFF48692C204920616D20796F7569
:106A500072204F726967696E616C20507275736144
:106A6000206933207072696E7465722E20576F75BD
:106A70006C6420796F75206C696B65206D6520747E
:106A80006F20677569646520796F75207468726F0F
:106A900075676820746865207365747570207072FE
:106AA0006F636573733F00FFFF52756E6E696E67AB
:106AB0002057697A6172642077696C6C2064656C18
:106AC0006574652063757272656E742063616C69AC
:106AD00062726174696F6E20726573756C74732075
:106AE000616E642073746172742066726F6D2074BD
:106AF000686520626567696E6E696E672E20436FF8
:106B00006E74696E75653F00FFFF506C656173655B
:106B1000206C6F616420504C412066696C616D652A
:106B20006E742066697273742E00FFFF49732050E3
:106B30004C412066696C616D656E74206C6F616498
:106B400065643F00FFFF43616C69627261746500B8
:106B5000FFFF436F70792073656C65637465642013
:106B60006C616E67756167652066726F6D2058464F
:106B70004C4153483F00FFFF54656D70657261746E
:106B80007572652063616C6962726174696F6E20F1
:106B90006661696C656400FFFF58595A2063616C37
:106BA0006962726174696F6E20616C6C20726967D2
:106BB00068742E20536B65772077696C6C20626552
:106BC00020636F72726563746564206175746F6DA4
:106BD00061746963616C6C792E00FFFF58595A200B
:106BE00063616C6962726174696F6E20616C6C20A4
:106BF00072696768742E20582F5920617865732058
:106C000061726520736C696768746C7920736B6559
:106C10007765642E20476F6F64206A6F622100FFE2
:106C2000FF58595A2063616C6962726174696F6EB2
:106C3000206F6B2E20582F59206178657320617268
:106C4000652070657270656E646963756C61722E23
:106C500020436F6E67726174756C6174696F6E73D7
:106C60002100FFFF58595A2063616C696272617498
:106C7000696F6E20636F6D70726F6D697365642EDE
:106C8000204C6566742066726F6E742063616C6957
:106C900062726174696F6E20706F696E74206E6FBE
:106CA0007420726561636861626C652E00FFFF5835
:106CB000595A2063616C6962726174696F6E2063F6
:106CC0006F6D70726F6D697365642E2052696768AD
:106CD000742066726F6E742063616C696272617495
:106CE000696F6E20706F696E74206E6F74207265AC
:106CF00061636861626C652E00FFFF58595A20631A
:106D0000616C6962726174696F6E20636F6D70721D
:106D10006F6D697365642E2046726F6E74206361B7
:106D20006C6962726174696F6E20706F696E7473E2
:106D3000206E6F7420726561636861626C652E00FD
:106D4000FFFF417265206C65667420616E6420727D
:106D500069676874205A7E636172726961676573DE
:106D600020616C6C2075703F00FFFF43616C6962AD
:106D7000726174696E672058595A2E20526F74617F
:106D8000746520746865206B6E6F6220746F206D6F
:106D90006F766520746865205A206361727269613C
:106DA000676520757020746F2074686520656E6457
:106DB0002073746F70706572732E20436C69636BFF
:106DC000207768656E20646F6E652E00FFFF43615B
:106DD0006C6962726174696E67205A2E20526F74FA
:106DE00061746520746865206B6E6F6220746F201B
:106DF0006D6F766520746865205A206361727269D0
:106E000061676520757020746F2074686520656EF9
:106E1000642073746F70706572732E20436C6963A5
:106E20006B207768656E20646F6E652E00FFFF57DC
:106E3000616974696E6720666F72206E6F7A7A6C12
:106E40006520616E642062656420636F6F6C696E9B
:106E50006700FFFF57616974696E6720666F722073
:106E600050494E44412070726F626520636F6F6CB1
:106E7000696E6700FFFF5365742074656D706572FD
:106E800061747572653A00FFFF526573657400FFA7
:106E9000FF526561722073696465205B756D5D00EA
:106EA000FFFF46726F6E7420736964655B756D5D7C
:106EB00000FFFF526967687420736964655B756DD4
:106EC0005D00FFFF4C6566742073696465205B7527
:106ED0006D5D00FFFF546F74616C2066696C616DBD
:106EE000656E7400FFFF546F74616C207072696E80
:106EF000742074696D6500FFFF46696C616D656E95
:106F000074207573656400FFFF5072696E7420749D
:106F1000696D6500FFFF436F6C6F72206E6F7420A8
:106F2000636F727265637400FFFF46696C616D6523
:106F30006E74206E6F74206C6F6164656400FFFF77
:106F40004368616E67656420636F72726563746C19
:106F5000793F00FFFF4C6F6164696E6720636F6C5F
:106F60006F7200FFFF4368616E676520737563632E
:106F70006573732100FFFF616E6420707265737327
:106F800020746865206B6E6F6200FFFF496E736549
:106F900072742066696C616D656E7400FFFF4368F2
:106FA000616E67696E672066696C616D656E7421DC
:106FB00000FFFF536F756E642020202020205B6C43
:106FC0006F75645D00FFFF536F756E642020202095
:106FD00020205B6D7574655D00FFFF536F756E64F7
:106FE000202020205B73696C656E745D00FFFF5389
:106FF0006F756E642020202020205B6F6E63655DBE
:1070000000FFFF536F756E642020202020205B6CF2
:107010006F75645D00FFFF466C6F7700FFFF537074
:1070200065656400FFFF4C6F61642066696C616D8B
:10703000656E74203500FFFF4C6F61642066696CDB
:10704000616D656E74203400FFFF4C6F61642066D3
:10705000696C616D656E74203300FFFF4C6F616475
:107060002066696C616D656E74203200FFFF4C6FA5
:1070700061642066696C616D656E74203100FFFF8C
:107080004C6F616420616C6C00FFFF456A6563743E
:107090002066696C616D656E74203500FFFF456A7E
:1070A0006563742066696C616D656E74203400FFE1
:1070B000FF456A6563742066696C616D656E742056
:1070C0003300FFFF456A6563742066696C616D6516
:1070D0006E74203200FFFF456A6563742066696C38
:1070E000616D656E74203100FFFF556E6C6F6164D9
:1070F0002066696C616D656E74203500FFFF556E0A
:107100006C6F61642066696C616D656E742034001B
:10711000FFFF556E6C6F61642066696C616D656E12
:1071200074203300FFFF556E6C6F61642066696CDC
:10713000616D656E74203200FFFF556E6C6F616487
:107140002066696C616D656E74203100FFFF556EBD
:107150006C6F616420616C6C00FFFF457874727520
:10716000646572203400FFFF45787472756465723F
:10717000203300FFFF457874727564657220320019
:10718000FFFF4578747275646572203100FFFF411E
:1071900075746F6C6F6164696E672066696C616D90
:1071A000656E74206973206163746976652C206A4A
:1071B00075737420707265737320746865206B6ECC
:1071C0006F6220616E6420696E73657274206669F7
:1071D0006C616D656E742E2E2E00FFFF4578747203
:1071E0007564657200FFFF4D6F7665205A00FFFFE2
:1071F0004D6F7665205900FFFF4D6F766520580072
:10720000FFFF4552524F523A2046696C616D656EE0
:10721000742073656E736F72206973206E6F7420B3
:10722000726573706F6E64696E672C20706C656137
:10723000736520636865636B20636F6E6E6563744E
:10724000696F6E2E00FFFF4175746F6C6F6164692A
:107250006E672066696C616D656E74206176616928
:107260006C61626C65206F6E6C79207768656E204A
:1072700066696C616D656E742073656E736F7220E4
:107280006973207475726E6564206F6E2E2E2E00E9
:10729000FFFF536F756E642020202020205B6C6FF1
:1072A00075645D00FFFF536F756E64202020202001
:1072B000205B6D7574655D00FFFF536F756E642014
:1072C0002020205B73696C656E745D00FFFF536F57
:1072D000756E642020202020205B6F6E63655D004A
:1072E000FFFF536F756E642020202020205B6C6FA1
:1072F00075645D00FFFF536F72743A2020202020D8
:10730000205B6E6F6E655D00FFFF536F72743A20F5
:10731000205B616C7068616265745D00FFFF536F94
:1073200072743A2020202020205B74696D655D0016
:10733000FFFF5344206361726420205B6E6F726DA7
:10734000616C5D00FFFF53442063617264205B66E3
:107350006C73684169725D00FFFF53656C6563740F
:10736000206C616E677561676500FFFF54656D7025
:107370002E2063616C2E2020205B6F6E5D00FFFF6E
:1073800054656D702E2063616C2E20205B6F6666E5
:107390005D00FFFF46616E7320636865636B2020AC
:1073A0005B6F66665D00FFFF46616E732063686514
:1073B000636B2020205B6F6E5D00FFFF4175746F73
:1073C000206465706C6574655B6F66665D00FFFFC9
:1073D0004175746F206465706C657465205B6F6EB9
:1073E0005D00FFFF462E206175746F6C6F61642035
:1073F0005B6F66665D00FFFF462E206175746F6CE3
:107400006F616420205B6F6E5D00FFFF46696C2E2C
:107410002073656E736F72205B4E2F415D00FFFF1E
:1074200044697361626C6520737465707065727312
:1074300000FFFF4D6F7665206178697300FFFF5490
:10744000656D706572617475726500FFFF54656DDE
:10745000702E2063616C6962726174696F6E00FFE7
:10746000FF52657365742058595A2063616C6962D4
:10747000722E00FFFF53686F7720656E642073746F
:107480006F707300FFFF5049442063616C69627242
:107490006174696F6E00FFFF426564206C657665FC
:1074A0006C20636F727265637400FFFF4D657368D3
:1074B00020426564204C6576656C696E6700FFFF4D
:1074C00043616C6962726174652058595A00FFFF0C
:1074D00053656C6674657374202020202020202062
:1074E0002000FFFF4669727374206C617965722019
:1074F00063616C2E00FFFF57697A61726400FFFFC1
:107500005B303B305D20706F696E74206F66667310
:10751000657400FFFF4D6561737572656420736B60
:10752000657700FFFF536C6967687420736B65773C
:1075300000FFFF53657665726520736B657700FF0A
:10754000FF592064697374616E63652066726F6DA4
:10755000206D696E00FFFF4C65667400FFFF526985
:1075600067687400FFFF54656D70657261747572B1
:10757000657300FFFF457874727564657220696EEB
:10758000666F00FFFF58595A2063616C2E206465B6
:107590007461696C7300FFFF446174653A00FFFF1A
:1075A000686F77746F2E707275736133642E636FBA
:1075B0006D00FFFF666F72756D2E707275736133AB
:1075C000642E636F6D00FFFF707275736133642EFC
:1075D000636F6D00FFFF537570706F727400FFFF73
:1075E00053746174697374696373202000FFFF41F1
:1075F00075746F4C6F61642066696C616D656E7443
:1076000000FFFF4368616E6765206578747275647A
:10761000657200FFFF456A6563742066696C616D81
:10762000656E7400FFFF4E6F2053442063617264E7
:1076300000FFFF526573756D65207072696E74008E
:10764000FFFF5061757365207072696E7400FFFFF3
:107650005072656865617400FFFF54756E6500FFC8
:10766000FF43757272656E7400FFFF557365642089
:10767000647572696E67207072696E7400FFFF41F5
:10768000646A757374696E67205A00FFFF5049443D
:107690002063616C2E2066696E697368656400FF03
:1076A000FF5049442063616C2E20202020202020A0
:1076B0002020202000FFFF5072696E7420706175D9
:1076C00073656400FFFF50494E4441204865617472
:1076D000696E6700FFFF43616C6962726174696F74
:1076E0006E20646F6E65004D3234004D32332025BC
:1076F000730043616C6962726174696E6720686FC0
:107700006D65006C63645F73656C66636865636B6D
:107710005F617869732025642C2025640A004D3848
:1077200034004731205A313520463130303000475F
:10773000323820570043686F6F736520636F6C6F3A
:10774000723A00436F6E74696E756520776974686C
:1077500020616E6F7468657220626F7764656E3F3A
:107760000057697A61726420656E64207374617475
:10777000653A2025640A001B5B324A2553203A1BD8
:107780005B313B394825382E3266206D0A2553205F
:107790003A0A25376C6464203A25326868646820A8
:1077A0003A253032686864206D001B5B324A2553ED
:1077B0003A1B5B313B364825382E32666D200A2550
:1077C00053203A1B5B333B38482532646820253010
:1077D00032646D2025303264001B5B303B3135480C
:1077E0004E2F41001B5B303B31354825342E32662D
:1077F00001001B5B303B304825533A0A25530A25CC
:10780000533A202025352E3266010A25533A20208E
:1078100025352E3266010025362E32666D6D004EFE
:107820002F41001B5B303B304825533A0A25530A51
:1078300025533A0A25533A0046696C2E2058643A7B
:107840002533642059643A2533640A496E743A201A
:107850002533642020536875743A2025336400462C
:10786000696C616D656E742073656E736F720A6901
:10787000732064697361626C65642E001B5B303B2E
:1078800030484E6F7A7A6C652046414E3A20253456
:10789000642052504D0A5072696E742046414E3A2F
:1078A00020202534642052504D0A0025632D2D3AA6
:1078B0002D2D2020002563253032753A2530327574
:1078C00025632563002046302020002025753E25B5
:1078D0007500204625750025335325337325250073
:1078E0002D2D2D00253368686400202020002053B2
:1078F00044005553420025632533642525005A254D
:10790000362E326620005A2020202D2D2D200025D5
:10791000632533642F256425630057697A61726497
:107920002073746174653A20256400473736004D32
:107930003435205A004D3435004738300054656DD9
:1079400070657261747572652063616C69627261E1
:1079500074696F6E206661696C65642E20436F6E7A
:1079600074696E75652077697468207072657373C9
:10797000696E6720746865206B6E6F622E005465B7
:107980006D70657261747572652063616C69627295
:107990006174696F6E20646F6E652E20436F6E7424
:1079A000696E756520776974682070726573736994
:1079B0006E6720746865206B6E6F622E0020003E3B
:1079C000003E0020003E003E003E003E0020003E03
:1079D000003E0020004D373032004D36303000463A
:1079E0004C4558202D20203234302F353000505057
:1079F0002020202D20203235342F313030004849CE
:107A00005053202D20203232302F3130300041426F
:107A10005320202D20203235352F31303000504575
:107A20005420202D20203233302F383500504C4147
:107A300020202D20203231352F3630004142532076
:107A40002020202D20203235352F313030006E6F30
:107A50007A7A6C65202D20203235302F3000666117
:107A6000726D2020202D20203235302F343000053B
:107A70002E2E004D37303100580059005A004578FD
:107A800074727564657200473939004469736162C4
:107A90006C65206661726D206D6F64653F0044699E
:107AA0007361626C65206661726D206D6F64650044
:107AB0004661726D206E756D626572004D383400DE
:107AC0005A30005A310059300059310058300058AE
:107AD0003100456E642073746F7073206469616750
:107AE000004D3434004732382057001B5B303B30A8
:107AF000484C617374207072696E74206661696CA1
:107B0000757265731B5B313B314846696C616D2E44
:107B10002072756E6F7574732020252D33641B5B86
:107B2000323B3048546F74616C206661696C7572C9
:107B300065731B5B333B314846696C616D2E207267
:107B4000756E6F7574732020252D3364006D6D0084
:107B500000590058001B5B323B314850494E4441AC
:107B60003A2020202025642563001B5B303B3148F0
:107B70004E6F7A7A6C653A202020256425631B5B62
:107B8000313B31484265643A202020202020256482
:107B9000256300466C617368416972204950204139
:107BA0006464723A004D4D55322020202020202060
:107BB0004E2F4100756E6B6E6F776E0025642E251B
:107BC000642E25642D2564002046573A004D4D55FE
:107BD0003220636F6E6E6563746564005365702058
:107BE0003230203230313800453344763666756C99
:107BF0006C0052414D426F31336100315F37356D5A
:107C00006D5F4D4B324500207265706F20556E6B75
:107C10006E6F776E0020332E342E302D3133323795
:107C2000004669726D776172653A0025642E25649D
:107C30002E25642E2564004661696C20737461747E
:107C400073004D3730322043004661726D206E75EF
:107C50006D62657200496E76616C696420504944BA
:107C60002063616C2E20726573756C74732E204EC8
:107C70006F742073746F72656420746F2045455073
:107C8000524F4D2E004D353030004731205A31359E
:107C900020463135303000473931004731205835E2
:107CA00030205931393020453020463730303000CF
:107CB000473930004D373032004D373032204300E5
:107CC0004D3730322055004D373032004D3730328D
:107CD0002043004731205A313520463135303000BD
:107CE000473931004731205835302059313930205B
:107CF0004530204637303030004D3833004739307A
:107D0000004D3834004D313034205330004D38347C
:107D1000004D373032204300473120583130205950
:107D2000313830204634303030004731205A31303D
:107D30002046313330302E303030004D3134302059
:107D40005330004D31303420533000473120452D21
:107D5000302E30373530302046323130302E303012
:107D6000303030004D313037004731205835302029
:107D70005935352045332E363237373300473120D9
:107D800058323030205935352045302E343933388B
:107D900036004731205832303020593735204533AE
:107DA0002E36323737330047312058353020593797
:107DB000352045302E343933383600473120583598
:107DC00030205939352045332E3632373733004786
:107DD000312058323030205939352045302E343951
:107DE0003338360047312058323030205931313560
:107DF0002045332E3632373733004731205835305F
:107E000020593131352045302E343933383600474A
:107E1000312058353020593133352045332E363214
:107E2000373733004731205832303020593133351D
:107E30002045302E36363137340047312058323025
:107E40003020593135352045322E36323737330020
:107E500047312058313030205931353520453200F6
:107E600047312058373520593135352045322E35A8
:107E70000047312046313038300047312058353006
:107E80002059313535004731204634303030004DEF
:107E9000323034205331303030004731205A302EC8
:107EA0003135302046373230302E303030004731D7
:107EB00020452D312E3530303030204632313030B3
:107EC0002E3030303030004D3833004739300047E5
:107ED0003231004739322045302E300047312058AA
:107EE0003130302E30204531322E35204631303081
:107EF000302E30004731205836302E302045392E74
:107F0000302046313030302E300047393220453075
:107F10002E300047323800543F004D313039205365
:107F2000323135004D31393020533630004D313447
:107F30003020533630004D3130342053323135004B
:107F40004D31303700473930004731204564656690
:107F500061756C745F72657472616374696F6E00D1
:107F60004D3832004731204564656661756C745F39
:107F700072657472616374696F6E004D3833004DC1
:107F800031303620532564004D3232302053256481
:107F9000003A200020202020202020202020202007
:107FA0002020202020202000203A200020202020F7
:107FB00020202020202020202020202020202020C1
:107FC00000202020202020202020202020200025EC
:107FD00073002D2D2D2D2D2D2D2D2D2D2D2D002DE5
:107FE0002D2D2D2D2D2D2D2D2D2D2D2D2D2D2D2DC1
:107FF0002D2D2D00FFFF506C656173652075706736
:10800000726164652E00FFFF4E6577206669726DB0
:10801000776172652076657273696F6E2061766133
:10802000696C61626C653A0000726300626574613C
:1080300000616C7068610064657600505255534170
:108040003344465700332E342E300000000A0B0212
:10805000090C0D0E080703040100000000000000D9
:108060000000000000000000000000000000000010
:1080700000000000000000121110000000000000CD
:1080800000000000000000000000000000000000F0
:1080900000000000000000000000000000000000E0
:1080A000000102102020080810204010204080020B
:1080B000010201080402010102040810204080802E
:1080C00040201008040201800402018040201008B2
:1080D000040201080402010102040810204080018A
:1080E000020408102040801008040880102040047A
:1080F0004080102040048005050505070508080894
:1081000008020202020A0A08080404040401010128
:108110000101010101030303030303030304070730
:10812000070C0C0C0C0C0C0C0C02020202060606CE
:1081300006060606060B0B0B0B0B0B0B0B07070AB1
:108140000A0A0A0A0A0505050404040808000020B2
:10815000002300260029002C002F0032000001001F
:108160000003010601090100002200250028002B60
:10817000002E003100340002010000050108010B4F
:108180000100002100240027002A002D00300033C8
:108190000001010000040107010A01024E414E499D
:1081A0004E495459494E46CDCCCC3D0AD7233C17B5
:1081B000B7D13877CC2B329595E6241FB14F0A0002
:1081C0000020410000C84200401C4620BCBE4CCAF2
:1081D0001B0E5AAEC59D7400407A10F35A00A0726F
:1081E0004E18090010A5D4E80000E87648170000F2
:1081F000E40B54020000CA9A3B000000E1F50500C0
:108200000080969800000040420F000000A0860108
:10821000000000102700000000E8030000000064D8
:1082200000000000000A0000000000010000000043
:10823000002C76D888DC674F0823DFC1DFAE59E118
:10824000B1B796E5E3E453C63AE651997696E8E687
:10825000C28426EB898C9B62ED407C6FFCEFBC9C5A
:108260009F40F2BAA56FA5F490055A2AF75C936B6C
:108270006CF9676DC11BFCE0E40D47FEF520E6B527
:1082800000D0ED902E0300943577050080841E0801
:108290000000204E0A000000C80C333333330F981F
:1082A0006E12831141EF8D2114893BE65516CFFEE6
:1082B000E6DB18D1844B381BF77C1D901DA4BBE472
:1082C00024203284725E228100C9F124ECA1E53DB4
:1082D000276364696E6F70737578585B00009FB296
:1082E00000DB59E87201D7B211241FBECFEFD1E2F3
:1082F000DEBFCDBF00E00CBF17E0A0E0B2E0EEE7CC
:10830000F0E903E00BBF02C007900D92A030B10767
:10831000D9F729E1A0E0B7E001C01D92AD3DB20759
:10832000E1F712E8C6EED2E800E006C022970109A4
:10833000FE010BBF0F94CFBCCE3DD10780E00807F4
:10834000A9F70F94A5B60D942DC80C9400002F9298
:108350003F924F925F926F927F928F929F92AF92D5
:10836000BF92CF92DF92EF92FF920F931F93CF9322
:10837000DF93CDB7DEB763970FB6F894DEBF0FBEBD
:10838000CDBF7C011B016A01FC011782168283812B
:1083900081FF66C3BE016F5F7F4F4B01F701938181
:1083A000F10193FD859193FF81911F01882309F4C9
:1083B00053C3853239F493FD859193FF81911F0159
:1083C000853239F4B70190E00F94E6C1560165019A
:1083D000E5CF10E0512C20E02032A0F48B3269F080
:1083E00030F4803259F0833269F420612CC08D3230
:1083F00039F0803339F4216026C02260246023C024
:10840000286021C027FD27C030ED380F3A3078F4BE
:1084100026FF06C0FAE01F9F300D1124132F13C052
:108420006AE0569E300D1124532E20620CC08E320D
:1084300021F426FD11C3206406C08C3611F4206897
:1084400002C0883641F4F10193FD859193FF81913B
:108450001F018111C1CF9BEB980F933018F420615D
:10846000805E06C09BE9980F933008F0AAC12F7E6A
:1084700026FF16E02F73722E853621F4F22FF0645A
